{
  "contractName": "Voting",
  "abi": [
    {
      "anonymous": false,
      "inputs": [
        {
          "indexed": true,
          "internalType": "address",
          "name": "previousOwner",
          "type": "address"
        },
        {
          "indexed": true,
          "internalType": "address",
          "name": "newOwner",
          "type": "address"
        }
      ],
      "name": "OwnershipTransferred",
      "type": "event"
    },
    {
      "anonymous": false,
      "inputs": [
        {
          "indexed": false,
          "internalType": "uint256",
          "name": "proposalId",
          "type": "uint256"
        },
        {
          "indexed": false,
          "internalType": "string",
          "name": "description",
          "type": "string"
        }
      ],
      "name": "ProposalRegistered",
      "type": "event"
    },
    {
      "anonymous": false,
      "inputs": [
        {
          "indexed": false,
          "internalType": "address",
          "name": "voter",
          "type": "address"
        },
        {
          "indexed": false,
          "internalType": "uint256",
          "name": "proposalId",
          "type": "uint256"
        }
      ],
      "name": "Voted",
      "type": "event"
    },
    {
      "anonymous": false,
      "inputs": [
        {
          "indexed": false,
          "internalType": "address",
          "name": "voterAddress",
          "type": "address"
        }
      ],
      "name": "VoterRegistered",
      "type": "event"
    },
    {
      "anonymous": false,
      "inputs": [
        {
          "indexed": false,
          "internalType": "enum Voting.WorkflowStatus",
          "name": "previousStatus",
          "type": "uint8"
        },
        {
          "indexed": false,
          "internalType": "enum Voting.WorkflowStatus",
          "name": "newStatus",
          "type": "uint8"
        }
      ],
      "name": "WorkflowStatusChange",
      "type": "event"
    },
    {
      "inputs": [],
      "name": "owner",
      "outputs": [
        {
          "internalType": "address",
          "name": "",
          "type": "address"
        }
      ],
      "stateMutability": "view",
      "type": "function",
      "constant": true
    },
    {
      "inputs": [],
      "name": "renounceOwnership",
      "outputs": [],
      "stateMutability": "nonpayable",
      "type": "function"
    },
    {
      "inputs": [
        {
          "internalType": "address",
          "name": "newOwner",
          "type": "address"
        }
      ],
      "name": "transferOwnership",
      "outputs": [],
      "stateMutability": "nonpayable",
      "type": "function"
    },
    {
      "inputs": [],
      "name": "winningProposalID",
      "outputs": [
        {
          "internalType": "uint256",
          "name": "",
          "type": "uint256"
        }
      ],
      "stateMutability": "view",
      "type": "function",
      "constant": true
    },
    {
      "inputs": [],
      "name": "workflowStatus",
      "outputs": [
        {
          "internalType": "enum Voting.WorkflowStatus",
          "name": "",
          "type": "uint8"
        }
      ],
      "stateMutability": "view",
      "type": "function",
      "constant": true
    },
    {
      "inputs": [
        {
          "internalType": "address",
          "name": "_addr",
          "type": "address"
        }
      ],
      "name": "getVoter",
      "outputs": [
        {
          "components": [
            {
              "internalType": "bool",
              "name": "isRegistered",
              "type": "bool"
            },
            {
              "internalType": "bool",
              "name": "hasVoted",
              "type": "bool"
            },
            {
              "internalType": "uint256",
              "name": "votedProposalId",
              "type": "uint256"
            }
          ],
          "internalType": "struct Voting.Voter",
          "name": "",
          "type": "tuple"
        }
      ],
      "stateMutability": "view",
      "type": "function",
      "constant": true
    },
    {
      "inputs": [
        {
          "internalType": "uint256",
          "name": "_id",
          "type": "uint256"
        }
      ],
      "name": "getOneProposal",
      "outputs": [
        {
          "components": [
            {
              "internalType": "string",
              "name": "description",
              "type": "string"
            },
            {
              "internalType": "uint256",
              "name": "voteCount",
              "type": "uint256"
            }
          ],
          "internalType": "struct Voting.Proposal",
          "name": "",
          "type": "tuple"
        }
      ],
      "stateMutability": "view",
      "type": "function",
      "constant": true
    },
    {
      "inputs": [
        {
          "internalType": "address",
          "name": "_addr",
          "type": "address"
        }
      ],
      "name": "addVoter",
      "outputs": [],
      "stateMutability": "nonpayable",
      "type": "function"
    },
    {
      "inputs": [
        {
          "internalType": "string",
          "name": "_desc",
          "type": "string"
        }
      ],
      "name": "addProposal",
      "outputs": [],
      "stateMutability": "nonpayable",
      "type": "function"
    },
    {
      "inputs": [
        {
          "internalType": "uint256",
          "name": "_id",
          "type": "uint256"
        }
      ],
      "name": "setVote",
      "outputs": [],
      "stateMutability": "nonpayable",
      "type": "function"
    },
    {
      "inputs": [],
      "name": "changeState",
      "outputs": [],
      "stateMutability": "nonpayable",
      "type": "function"
    },
    {
      "inputs": [],
      "name": "tallyVotes",
      "outputs": [],
      "stateMutability": "nonpayable",
      "type": "function"
    }
  ],
  "bytecode": "0x608060405234801561001057600080fd5b5061002d61002261003260201b60201c565b61003a60201b60201c565b6100fe565b600033905090565b60008060009054906101000a900473ffffffffffffffffffffffffffffffffffffffff169050816000806101000a81548173ffffffffffffffffffffffffffffffffffffffff021916908373ffffffffffffffffffffffffffffffffffffffff1602179055508173ffffffffffffffffffffffffffffffffffffffff168173ffffffffffffffffffffffffffffffffffffffff167f8be0079c531659141344cd1fd0a4f28419497f9722a3daafe3b4186f6b6457e060405160405180910390a35050565b611fb48061010d6000396000f3fe608060405234801561001057600080fd5b50600436106100b45760003560e01c8063a1edffa211610071578063a1edffa21461012d578063a2788cce1461014b578063bdc014311461017b578063d4f50f9814610199578063f2fde38b146101c9578063f4ab9adf146101e5576100b4565b8063230796ae146100b95780632fdae3c5146100d5578063378a2178146100f1578063715018a6146100fb5780638412e667146101055780638da5cb5b1461010f575b600080fd5b6100d360048036038101906100ce9190611251565b610201565b005b6100ef60048036038101906100ea91906113c4565b6104fc565b005b6100f9610789565b005b610103610890565b005b61010d6108a4565b005b610117610ade565b604051610124919061144e565b60405180910390f35b610135610b07565b60405161014291906114e0565b60405180910390f35b61016560048036038101906101609190611251565b610b1a565b60405161017291906115cf565b60405180910390f35b610183610c81565b6040516101909190611600565b60405180910390f35b6101b360048036038101906101ae9190611647565b610c87565b6040516101c091906116d1565b60405180910390f35b6101e360048036038101906101de9190611647565b610daf565b005b6101ff60048036038101906101fa9190611647565b610e32565b005b600460003373ffffffffffffffffffffffffffffffffffffffff1673ffffffffffffffffffffffffffffffffffffffff16815260200190815260200160002060000160009054906101000a900460ff16610290576040517f08c379a000000000000000000000000000000000000000000000000000000000815260040161028790611749565b60405180910390fd5b600360058111156102a4576102a3611469565b5b600260009054906101000a900460ff1660058111156102c6576102c5611469565b5b14610306576040517f08c379a00000000000000000000000000000000000000000000000000000000081526004016102fd906117db565b60405180910390fd5b60011515600460003373ffffffffffffffffffffffffffffffffffffffff1673ffffffffffffffffffffffffffffffffffffffff16815260200190815260200160002060000160019054906101000a900460ff1615150361039c576040517f08c379a000000000000000000000000000000000000000000000000000000000815260040161039390611847565b60405180910390fd5b60038054905081106103e3576040517f08c379a00000000000000000000000000000000000000000000000000000000081526004016103da906118b3565b60405180910390fd5b80600460003373ffffffffffffffffffffffffffffffffffffffff1673ffffffffffffffffffffffffffffffffffffffff168152602001908152602001600020600101819055506001600460003373ffffffffffffffffffffffffffffffffffffffff1673ffffffffffffffffffffffffffffffffffffffff16815260200190815260200160002060000160016101000a81548160ff02191690831515021790555060038181548110610499576104986118d3565b5b906000526020600020906002020160010160008154809291906104bb90611931565b91905055507f4d99b957a2bc29a30ebd96a7be8e68fe50a3c701db28a91436490b7d53870ca433826040516104f1929190611979565b60405180910390a150565b600460003373ffffffffffffffffffffffffffffffffffffffff1673ffffffffffffffffffffffffffffffffffffffff16815260200190815260200160002060000160009054906101000a900460ff1661058b576040517f08c379a000000000000000000000000000000000000000000000000000000000815260040161058290611749565b60405180910390fd5b6001600581111561059f5761059e611469565b5b600260009054906101000a900460ff1660058111156105c1576105c0611469565b5b14610601576040517f08c379a00000000000000000000000000000000000000000000000000000000081526004016105f8906119ee565b60405180910390fd5b60405160200161061090611a34565b60405160208183030381529060405280519060200120816040516020016106379190611a8d565b604051602081830303815290604052805190602001200361068d576040517f08c379a000000000000000000000000000000000000000000000000000000000815260040161068490611b21565b60405180910390fd5b6064600380549050106106d5576040517f08c379a00000000000000000000000000000000000000000000000000000000081526004016106cc90611b8d565b60405180910390fd5b6106dd611125565b8181600001819052506003819080600181540180825580915050600190039060005260206000209060020201600090919091909150600082015181600001908051906020019061072e92919061113f565b506020820151816001015550507f7c33c4b6ed18ab3f65fdeb25d41356291f7ec877c0db0af1a821ad5c444b4aeb600160038054905061076e9190611bad565b8360405161077d929190611be1565b60405180910390a15050565b610791610fdb565b600460058111156107a5576107a4611469565b5b600260009054906101000a900460ff1660058111156107c7576107c6611469565b5b14610807576040517f08c379a00000000000000000000000000000000000000000000000000000000081526004016107fe90611c83565b60405180910390fd5b600080600090505b60038054905081101561088557600382815481106108305761082f6118d3565b5b90600052602060002090600202016001015460038281548110610856576108556118d3565b5b9060005260206000209060020201600101541115610872578091505b808061087d90611931565b91505061080f565b508060018190555050565b610898610fdb565b6108a26000611059565b565b6108ac610fdb565b6005808111156108bf576108be611469565b5b600260009054906101000a900460ff1660058111156108e1576108e0611469565b5b0361092857600060058111156108fa576108f9611469565b5b600260006101000a81548160ff0219169083600581111561091e5761091d611469565b5b0217905550610992565b6001600260009054906101000a900460ff16600581111561094c5761094b611469565b5b6109569190611ca3565b600581111561096857610967611469565b5b600260006101000a81548160ff0219169083600581111561098c5761098b611469565b5b02179055505b600060058111156109a6576109a5611469565b5b600260009054906101000a900460ff1660058111156109c8576109c7611469565b5b03610a30577f0a97a4ee45751e2abf3e4fc8946939630b11b371ea8ae39ccdc3056e98f5cc3f600580811115610a0157610a00611469565b5b60006005811115610a1557610a14611469565b5b604051610a23929190611cf9565b60405180910390a1610adc565b7f0a97a4ee45751e2abf3e4fc8946939630b11b371ea8ae39ccdc3056e98f5cc3f6001600260009054906101000a900460ff166005811115610a7557610a74611469565b5b610a7f9190611bad565b6005811115610a9157610a90611469565b5b600260009054906101000a900460ff166005811115610ab357610ab2611469565b5b6005811115610ac557610ac4611469565b5b604051610ad3929190611cf9565b60405180910390a15b565b60008060009054906101000a900473ffffffffffffffffffffffffffffffffffffffff16905090565b600260009054906101000a900460ff1681565b610b22611125565b600460003373ffffffffffffffffffffffffffffffffffffffff1673ffffffffffffffffffffffffffffffffffffffff16815260200190815260200160002060000160009054906101000a900460ff16610bb1576040517f08c379a0000000000000000000000000000000000000000000000000000000008152600401610ba890611749565b60405180910390fd5b60038281548110610bc557610bc46118d3565b5b9060005260206000209060020201604051806040016040529081600082018054610bee90611d51565b80601f0160208091040260200160405190810160405280929190818152602001828054610c1a90611d51565b8015610c675780601f10610c3c57610100808354040283529160200191610c67565b820191906000526020600020905b815481529060010190602001808311610c4a57829003601f168201915b505050505081526020016001820154815250509050919050565b60015481565b610c8f6111c5565b600460003373ffffffffffffffffffffffffffffffffffffffff1673ffffffffffffffffffffffffffffffffffffffff16815260200190815260200160002060000160009054906101000a900460ff16610d1e576040517f08c379a0000000000000000000000000000000000000000000000000000000008152600401610d1590611749565b60405180910390fd5b600460008373ffffffffffffffffffffffffffffffffffffffff1673ffffffffffffffffffffffffffffffffffffffff1681526020019081526020016000206040518060600160405290816000820160009054906101000a900460ff161515151581526020016000820160019054906101000a900460ff161515151581526020016001820154815250509050919050565b610db7610fdb565b600073ffffffffffffffffffffffffffffffffffffffff168173ffffffffffffffffffffffffffffffffffffffff1603610e26576040517f08c379a0000000000000000000000000000000000000000000000000000000008152600401610e1d90611df4565b60405180910390fd5b610e2f81611059565b50565b610e3a610fdb565b60006005811115610e4e57610e4d611469565b5b600260009054906101000a900460ff166005811115610e7057610e6f611469565b5b14610eb0576040517f08c379a0000000000000000000000000000000000000000000000000000000008152600401610ea790611e86565b60405180910390fd5b60011515600460008373ffffffffffffffffffffffffffffffffffffffff1673ffffffffffffffffffffffffffffffffffffffff16815260200190815260200160002060000160009054906101000a900460ff16151503610f46576040517f08c379a0000000000000000000000000000000000000000000000000000000008152600401610f3d90611ef2565b60405180910390fd5b6001600460008373ffffffffffffffffffffffffffffffffffffffff1673ffffffffffffffffffffffffffffffffffffffff16815260200190815260200160002060000160006101000a81548160ff0219169083151502179055507fb6be2187d059cc2a55fe29e0e503b566e1e0f8c8780096e185429350acffd3dd81604051610fd0919061144e565b60405180910390a150565b610fe361111d565b73ffffffffffffffffffffffffffffffffffffffff16611001610ade565b73ffffffffffffffffffffffffffffffffffffffff1614611057576040517f08c379a000000000000000000000000000000000000000000000000000000000815260040161104e90611f5e565b60405180910390fd5b565b60008060009054906101000a900473ffffffffffffffffffffffffffffffffffffffff169050816000806101000a81548173ffffffffffffffffffffffffffffffffffffffff021916908373ffffffffffffffffffffffffffffffffffffffff1602179055508173ffffffffffffffffffffffffffffffffffffffff168173ffffffffffffffffffffffffffffffffffffffff167f8be0079c531659141344cd1fd0a4f28419497f9722a3daafe3b4186f6b6457e060405160405180910390a35050565b600033905090565b604051806040016040528060608152602001600081525090565b82805461114b90611d51565b90600052602060002090601f01602090048101928261116d57600085556111b4565b82601f1061118657805160ff19168380011785556111b4565b828001600101855582156111b4579182015b828111156111b3578251825591602001919060010190611198565b5b5090506111c191906111ea565b5090565b6040518060600160405280600015158152602001600015158152602001600081525090565b5b808211156112035760008160009055506001016111eb565b5090565b6000604051905090565b600080fd5b600080fd5b6000819050919050565b61122e8161121b565b811461123957600080fd5b50565b60008135905061124b81611225565b92915050565b60006020828403121561126757611266611211565b5b60006112758482850161123c565b91505092915050565b600080fd5b600080fd5b6000601f19601f8301169050919050565b7f4e487b7100000000000000000000000000000000000000000000000000000000600052604160045260246000fd5b6112d182611288565b810181811067ffffffffffffffff821117156112f0576112ef611299565b5b80604052505050565b6000611303611207565b905061130f82826112c8565b919050565b600067ffffffffffffffff82111561132f5761132e611299565b5b61133882611288565b9050602081019050919050565b82818337600083830152505050565b600061136761136284611314565b6112f9565b90508281526020810184848401111561138357611382611283565b5b61138e848285611345565b509392505050565b600082601f8301126113ab576113aa61127e565b5b81356113bb848260208601611354565b91505092915050565b6000602082840312156113da576113d9611211565b5b600082013567ffffffffffffffff8111156113f8576113f7611216565b5b61140484828501611396565b91505092915050565b600073ffffffffffffffffffffffffffffffffffffffff82169050919050565b60006114388261140d565b9050919050565b6114488161142d565b82525050565b6000602082019050611463600083018461143f565b92915050565b7f4e487b7100000000000000000000000000000000000000000000000000000000600052602160045260246000fd5b600681106114a9576114a8611469565b5b50565b60008190506114ba82611498565b919050565b60006114ca826114ac565b9050919050565b6114da816114bf565b82525050565b60006020820190506114f560008301846114d1565b92915050565b600081519050919050565b600082825260208201905092915050565b60005b8381101561153557808201518184015260208101905061151a565b83811115611544576000848401525b50505050565b6000611555826114fb565b61155f8185611506565b935061156f818560208601611517565b61157881611288565b840191505092915050565b61158c8161121b565b82525050565b600060408301600083015184820360008601526115af828261154a565b91505060208301516115c46020860182611583565b508091505092915050565b600060208201905081810360008301526115e98184611592565b905092915050565b6115fa8161121b565b82525050565b600060208201905061161560008301846115f1565b92915050565b6116248161142d565b811461162f57600080fd5b50565b6000813590506116418161161b565b92915050565b60006020828403121561165d5761165c611211565b5b600061166b84828501611632565b91505092915050565b60008115159050919050565b61168981611674565b82525050565b6060820160008201516116a56000850182611680565b5060208201516116b86020850182611680565b5060408201516116cb6040850182611583565b50505050565b60006060820190506116e6600083018461168f565b92915050565b600082825260208201905092915050565b7f596f75277265206e6f74206120766f7465720000000000000000000000000000600082015250565b60006117336012836116ec565b915061173e826116fd565b602082019050919050565b6000602082019050818103600083015261176281611726565b9050919050565b7f566f74696e672073657373696f6e20686176656e74207374617274656420796560008201527f7400000000000000000000000000000000000000000000000000000000000000602082015250565b60006117c56021836116ec565b91506117d082611769565b604082019050919050565b600060208201905081810360008301526117f4816117b8565b9050919050565b7f596f75206861766520616c726561647920766f74656400000000000000000000600082015250565b60006118316016836116ec565b915061183c826117fb565b602082019050919050565b6000602082019050818103600083015261186081611824565b9050919050565b7f50726f706f73616c206e6f7420666f756e640000000000000000000000000000600082015250565b600061189d6012836116ec565b91506118a882611867565b602082019050919050565b600060208201905081810360008301526118cc81611890565b9050919050565b7f4e487b7100000000000000000000000000000000000000000000000000000000600052603260045260246000fd5b7f4e487b7100000000000000000000000000000000000000000000000000000000600052601160045260246000fd5b600061193c8261121b565b91507fffffffffffffffffffffffffffffffffffffffffffffffffffffffffffffffff820361196e5761196d611902565b5b600182019050919050565b600060408201905061198e600083018561143f565b61199b60208301846115f1565b9392505050565b7f50726f706f73616c7320617265206e6f7420616c6c6f77656420796574000000600082015250565b60006119d8601d836116ec565b91506119e3826119a2565b602082019050919050565b60006020820190508181036000830152611a07816119cb565b9050919050565b50565b6000611a1e6000836116ec565b9150611a2982611a0e565b600082019050919050565b60006020820190508181036000830152611a4d81611a11565b9050919050565b6000611a5f826114fb565b611a6981856116ec565b9350611a79818560208601611517565b611a8281611288565b840191505092915050565b60006020820190508181036000830152611aa78184611a54565b905092915050565b7f566f7573206e6520706f7576657a20706173206e65207269656e2070726f706f60008201527f7365720000000000000000000000000000000000000000000000000000000000602082015250565b6000611b0b6023836116ec565b9150611b1682611aaf565b604082019050919050565b60006020820190508181036000830152611b3a81611afe565b9050919050565b7f50726f706f73616c277320417272617920697320636f6d706c65746500000000600082015250565b6000611b77601c836116ec565b9150611b8282611b41565b602082019050919050565b60006020820190508181036000830152611ba681611b6a565b9050919050565b6000611bb88261121b565b9150611bc38361121b565b925082821015611bd657611bd5611902565b5b828203905092915050565b6000604082019050611bf660008301856115f1565b8181036020830152611c088184611a54565b90509392505050565b7f43757272656e7420737461747573206973206e6f7420766f74696e672073657360008201527f73696f6e20656e64656400000000000000000000000000000000000000000000602082015250565b6000611c6d602a836116ec565b9150611c7882611c11565b604082019050919050565b60006020820190508181036000830152611c9c81611c60565b9050919050565b6000611cae8261121b565b9150611cb98361121b565b9250827fffffffffffffffffffffffffffffffffffffffffffffffffffffffffffffffff03821115611cee57611ced611902565b5b828201905092915050565b6000604082019050611d0e60008301856114d1565b611d1b60208301846114d1565b9392505050565b7f4e487b7100000000000000000000000000000000000000000000000000000000600052602260045260246000fd5b60006002820490506001821680611d6957607f821691505b602082108103611d7c57611d7b611d22565b5b50919050565b7f4f776e61626c653a206e6577206f776e657220697320746865207a65726f206160008201527f6464726573730000000000000000000000000000000000000000000000000000602082015250565b6000611dde6026836116ec565b9150611de982611d82565b604082019050919050565b60006020820190508181036000830152611e0d81611dd1565b9050919050565b7f566f7465727320726567697374726174696f6e206973206e6f74206f70656e2060008201527f7965740000000000000000000000000000000000000000000000000000000000602082015250565b6000611e706023836116ec565b9150611e7b82611e14565b604082019050919050565b60006020820190508181036000830152611e9f81611e63565b9050919050565b7f416c726561647920726567697374657265640000000000000000000000000000600082015250565b6000611edc6012836116ec565b9150611ee782611ea6565b602082019050919050565b60006020820190508181036000830152611f0b81611ecf565b9050919050565b7f4f776e61626c653a2063616c6c6572206973206e6f7420746865206f776e6572600082015250565b6000611f486020836116ec565b9150611f5382611f12565b602082019050919050565b60006020820190508181036000830152611f7781611f3b565b905091905056fea26469706673582212207444b0a5a40b088b9954170e542c8b839f0321d08378d47849397ce30a3e7e0864736f6c634300080e0033",
  "immutableReferences": {},
  "source": "// SPDX-License-Identifier: MIT\npragma solidity >=0.4.22 <0.9.0;\nimport \"../node_modules/@openzeppelin/contracts/access/Ownable.sol\";\n\n/**\n * @title A voting system on the blockchain\n *\n * @author Jean-Baptiste Fund -> telegram : @theblockdev - email : frenchcryptoagency@gmail.com\n *\n * @notice This contract is a simplified voting system divided into four parts :<br>\n *\n * @dev First, the owner registers the participants<br>\n * @dev Second, voters can register proposals<br>\n * @dev Then, the voters vote for their favorite proposal<br>\n * @dev Finally, the owner tallies the votes. <br>\n *<br>\n * @dev To separate these different phases, we use the enum of the contract, only the owner can change the enum. <br>\n *\n * @dev WARNING : In order to avoid a DOS flaw, we have added a proposal limit. Make sure that this limit matches the use you want to make with this voting system. \n */\n\ncontract Voting is Ownable {\n\n/**\n * @dev winningProposalID is the winning proposal of the vote \n */\n    uint public winningProposalID;\n    \n    struct Voter {\n        bool isRegistered;\n        bool hasVoted;\n        uint votedProposalId;\n    }\n\n    struct Proposal {\n        string description;\n        uint voteCount;\n    }\n\n\n    enum  WorkflowStatus {\n        RegisteringVoters,\n        ProposalsRegistrationStarted,\n        ProposalsRegistrationEnded,\n        VotingSessionStarted,\n        VotingSessionEnded,\n        VotesTallied\n    }\n\n/**\n * @dev workflowStatus is the status of voting \n */\n    WorkflowStatus public workflowStatus;\n    Proposal[] proposalsArray;\n    mapping (address => Voter) voters;\n\n    event VoterRegistered(address voterAddress); \n    event WorkflowStatusChange(WorkflowStatus previousStatus, WorkflowStatus newStatus);\n    event ProposalRegistered(uint proposalId, string description);\n    event Voted (address voter, uint proposalId);\n\n    modifier onlyVoters() {\n        require(voters[msg.sender].isRegistered, \"You're not a voter\");\n        _;\n    }\n    \n/**\n * @dev Only voters can call getVoter\n * @param _addr is the address of the voter\n * @return voters is the struct of the voter\n */\n\n    function getVoter(address _addr) external onlyVoters view returns (Voter memory) {\n        return voters[_addr];\n    }\n    \n/**\n * @dev Only voters can call getOneProposal\n * @param _id is the id of the proposal\n * @return proposalsArray is the struct of the proposal\n */    \n    function getOneProposal(uint _id) external onlyVoters view returns (Proposal memory) {\n        return proposalsArray[_id];\n    }\n\n/**\n * @dev Only owner can add a voter\n * @param _addr is the address of the voter\n */\n\n    function addVoter(address _addr) external onlyOwner {\n        require(workflowStatus == WorkflowStatus.RegisteringVoters, 'Voters registration is not open yet');\n        require(voters[_addr].isRegistered != true, 'Already registered');\n    \n        voters[_addr].isRegistered = true;\n        emit VoterRegistered(_addr);\n    }\n \n/**\n * @dev Only voters can add a proposal <br> Warning before deploy, check the limit of proposalsArray.length\n * @param _desc is the description of the proposal\n */    \n\n    function addProposal(string memory _desc) external onlyVoters {\n        require(workflowStatus == WorkflowStatus.ProposalsRegistrationStarted, 'Proposals are not allowed yet');\n        require(keccak256(abi.encode(_desc)) != keccak256(abi.encode(\"\")), 'Vous ne pouvez pas ne rien proposer');\n        require(proposalsArray.length<100, \"Proposal's Array is complete\");\n\n        Proposal memory proposal;\n        proposal.description = _desc;\n        proposalsArray.push(proposal);\n        emit ProposalRegistered(proposalsArray.length-1, _desc);\n    }\n\n/**\n * @dev Only voters can set a vote\n * @param _id is the id of the proposal\n */ \n\n    function setVote( uint _id) external onlyVoters {\n        require(workflowStatus == WorkflowStatus.VotingSessionStarted, 'Voting session havent started yet');\n        require(voters[msg.sender].hasVoted != true, 'You have already voted');\n        require(_id < proposalsArray.length, 'Proposal not found');\n\n        voters[msg.sender].votedProposalId = _id;\n        voters[msg.sender].hasVoted = true;\n        proposalsArray[_id].voteCount++;\n\n        emit Voted(msg.sender, _id);\n    }\n\n/**\n * @dev Only owner can change the state\n */    \n\n    function changeState() external onlyOwner {                                \n        if (workflowStatus==WorkflowStatus.VotesTallied){\n            workflowStatus=WorkflowStatus(0);\n        }\n        else workflowStatus=WorkflowStatus(uint(workflowStatus)+1);   \n    \n        if (workflowStatus==WorkflowStatus.RegisteringVoters) {               \n            emit WorkflowStatusChange(WorkflowStatus(5),WorkflowStatus(0));\n        }\n        else {\n            emit WorkflowStatusChange(WorkflowStatus (uint (workflowStatus)-1), WorkflowStatus(uint(workflowStatus)));\n            }\n    }\n\n/**\n * @dev Only owner can tally the votes\n */\n\n   function tallyVotes() external onlyOwner {\n       require(workflowStatus == WorkflowStatus.VotingSessionEnded, \"Current status is not voting session ended\");\n       uint _winningProposalId;\n      for (uint256 p = 0; p < proposalsArray.length; p++) {\n           if (proposalsArray[p].voteCount > proposalsArray[_winningProposalId].voteCount) {\n               _winningProposalId = p;\n          }\n       }\n       winningProposalID = _winningProposalId;\n    }\n}",
  "sourcePath": "/home/jb/Projets/Alyra/Devoirs/Dapp/truffle/contracts/Voting.sol",
  "compiler": {
    "name": "solc",
    "version": "0.8.14+commit.80d49f37.Emscripten.clang"
  },
  "schemaVersion": "3.4.8",
  "updatedAt": "2022-07-19T09:30:50.488Z",
  "networkType": "ethereum",
  "devdoc": {
    "author": "Jean-Baptiste Fund -> telegram : @theblockdev - email : frenchcryptoagency@gmail.com",
    "details": "First, the owner registers the participants<br>Second, voters can register proposals<br>Then, the voters vote for their favorite proposal<br>Finally, the owner tallies the votes. <br> <br>To separate these different phases, we use the enum of the contract, only the owner can change the enum. <br>WARNING : In order to avoid a DOS flaw, we have added a proposal limit. Make sure that this limit matches the use you want to make with this voting system. ",
    "kind": "dev",
    "methods": {
      "addProposal(string)": {
        "details": "Only voters can add a proposal <br> Warning before deploy, check the limit of proposalsArray.length",
        "params": {
          "_desc": "is the description of the proposal"
        }
      },
      "addVoter(address)": {
        "details": "Only owner can add a voter",
        "params": {
          "_addr": "is the address of the voter"
        }
      },
      "changeState()": {
        "details": "Only owner can change the state"
      },
      "getOneProposal(uint256)": {
        "details": "Only voters can call getOneProposal",
        "params": {
          "_id": "is the id of the proposal"
        },
        "returns": {
          "_0": "proposalsArray is the struct of the proposal"
        }
      },
      "getVoter(address)": {
        "details": "Only voters can call getVoter",
        "params": {
          "_addr": "is the address of the voter"
        },
        "returns": {
          "_0": "voters is the struct of the voter"
        }
      },
      "owner()": {
        "details": "Returns the address of the current owner."
      },
      "renounceOwnership()": {
        "details": "Leaves the contract without owner. It will not be possible to call `onlyOwner` functions anymore. Can only be called by the current owner. NOTE: Renouncing ownership will leave the contract without an owner, thereby removing any functionality that is only available to the owner."
      },
      "setVote(uint256)": {
        "details": "Only voters can set a vote",
        "params": {
          "_id": "is the id of the proposal"
        }
      },
      "tallyVotes()": {
        "details": "Only owner can tally the votes"
      },
      "transferOwnership(address)": {
        "details": "Transfers ownership of the contract to a new account (`newOwner`). Can only be called by the current owner."
      }
    },
    "stateVariables": {
      "winningProposalID": {
        "details": "winningProposalID is the winning proposal of the vote "
      },
      "workflowStatus": {
        "details": "workflowStatus is the status of voting "
      }
    },
    "title": "A voting system on the blockchain",
    "version": 1
  },
  "userdoc": {
    "kind": "user",
    "methods": {},
    "notice": "This contract is a simplified voting system divided into four parts :<br>",
    "version": 1
  }
}